{
  "_format": "hh-sol-artifact-1",
  "contractName": "Events",
  "sourceName": "contracts/Events.sol",
  "abi": [
    {
      "inputs": [],
      "stateMutability": "nonpayable",
      "type": "constructor"
    },
    {
      "inputs": [
        {
          "internalType": "uint256",
          "name": "_eventId",
          "type": "uint256"
        }
      ],
      "name": "attendEvent",
      "outputs": [],
      "stateMutability": "nonpayable",
      "type": "function"
    },
    {
      "inputs": [
        {
          "internalType": "string",
          "name": "_title",
          "type": "string"
        },
        {
          "internalType": "string",
          "name": "_description",
          "type": "string"
        },
        {
          "internalType": "string",
          "name": "_imageUrl",
          "type": "string"
        }
      ],
      "name": "createEvent",
      "outputs": [],
      "stateMutability": "nonpayable",
      "type": "function"
    },
    {
      "inputs": [
        {
          "internalType": "uint256",
          "name": "",
          "type": "uint256"
        }
      ],
      "name": "events",
      "outputs": [
        {
          "internalType": "uint256",
          "name": "eventId",
          "type": "uint256"
        },
        {
          "internalType": "string",
          "name": "title",
          "type": "string"
        },
        {
          "internalType": "string",
          "name": "description",
          "type": "string"
        },
        {
          "internalType": "string",
          "name": "imageUrl",
          "type": "string"
        }
      ],
      "stateMutability": "view",
      "type": "function"
    },
    {
      "inputs": [],
      "name": "getEvents",
      "outputs": [
        {
          "components": [
            {
              "internalType": "uint256",
              "name": "eventId",
              "type": "uint256"
            },
            {
              "internalType": "string",
              "name": "title",
              "type": "string"
            },
            {
              "internalType": "string",
              "name": "description",
              "type": "string"
            },
            {
              "internalType": "string",
              "name": "imageUrl",
              "type": "string"
            },
            {
              "internalType": "address[]",
              "name": "attendees",
              "type": "address[]"
            }
          ],
          "internalType": "struct Events.Event[]",
          "name": "",
          "type": "tuple[]"
        }
      ],
      "stateMutability": "view",
      "type": "function"
    },
    {
      "inputs": [],
      "name": "ownerOfContract",
      "outputs": [
        {
          "internalType": "address",
          "name": "",
          "type": "address"
        }
      ],
      "stateMutability": "view",
      "type": "function"
    }
  ],
  "bytecode": "0x608060405234801561001057600080fd5b50336000806101000a81548173ffffffffffffffffffffffffffffffffffffffff021916908373ffffffffffffffffffffffffffffffffffffffff1602179055506112c0806100606000396000f3fe608060405234801561001057600080fd5b50600436106100575760003560e01c8063048588db1461005c5780630b79143014610078578063404aa8f9146100ab578063468229ae146100c95780639b503fd8146100e7575b600080fd5b6100766004803603810190610071919061099b565b610103565b005b610092600480360381019061008d919061099b565b610192565b6040516100a29493929190610a67565b60405180910390f35b6100b361036a565b6040516100c09190610d57565b60405180910390f35b6100d1610617565b6040516100de9190610d88565b60405180910390f35b61010160048036038101906100fc9190610e08565b61063b565b005b60006001828154811061011957610118610ebc565b5b9060005260206000209060050201905080600401339080600181540180825580915050600190039060005260206000200160009091909190916101000a81548173ffffffffffffffffffffffffffffffffffffffff021916908373ffffffffffffffffffffffffffffffffffffffff1602179055505050565b600181815481106101a257600080fd5b90600052602060002090600502016000915090508060000154908060010180546101cb90610f1a565b80601f01602080910402602001604051908101604052809291908181526020018280546101f790610f1a565b80156102445780601f1061021957610100808354040283529160200191610244565b820191906000526020600020905b81548152906001019060200180831161022757829003601f168201915b50505050509080600201805461025990610f1a565b80601f016020809104026020016040519081016040528092919081815260200182805461028590610f1a565b80156102d25780601f106102a7576101008083540402835291602001916102d2565b820191906000526020600020905b8154815290600101906020018083116102b557829003601f168201915b5050505050908060030180546102e790610f1a565b80601f016020809104026020016040519081016040528092919081815260200182805461031390610f1a565b80156103605780601f1061033557610100808354040283529160200191610360565b820191906000526020600020905b81548152906001019060200180831161034357829003601f168201915b5050505050905084565b60606001805480602002602001604051908101604052809291908181526020016000905b8282101561060e57838290600052602060002090600502016040518060a0016040529081600082015481526020016001820180546103cb90610f1a565b80601f01602080910402602001604051908101604052809291908181526020018280546103f790610f1a565b80156104445780601f1061041957610100808354040283529160200191610444565b820191906000526020600020905b81548152906001019060200180831161042757829003601f168201915b5050505050815260200160028201805461045d90610f1a565b80601f016020809104026020016040519081016040528092919081815260200182805461048990610f1a565b80156104d65780601f106104ab576101008083540402835291602001916104d6565b820191906000526020600020905b8154815290600101906020018083116104b957829003601f168201915b505050505081526020016003820180546104ef90610f1a565b80601f016020809104026020016040519081016040528092919081815260200182805461051b90610f1a565b80156105685780601f1061053d57610100808354040283529160200191610568565b820191906000526020600020905b81548152906001019060200180831161054b57829003601f168201915b50505050508152602001600482018054806020026020016040519081016040528092919081815260200182805480156105f657602002820191906000526020600020905b8160009054906101000a900473ffffffffffffffffffffffffffffffffffffffff1673ffffffffffffffffffffffffffffffffffffffff16815260200190600101908083116105ac575b5050505050815250508152602001906001019061038e565b50505050905090565b60008054906101000a900473ffffffffffffffffffffffffffffffffffffffff1681565b60008054906101000a900473ffffffffffffffffffffffffffffffffffffffff1673ffffffffffffffffffffffffffffffffffffffff163373ffffffffffffffffffffffffffffffffffffffff16146106c9576040517f08c379a00000000000000000000000000000000000000000000000000000000081526004016106c090610fbd565b60405180910390fd5b6000600180549050905060006040518060a0016040528083815260200189898080601f016020809104026020016040519081016040528093929190818152602001838380828437600081840152601f19601f82011690508083019250505050505050815260200187878080601f016020809104026020016040519081016040528093929190818152602001838380828437600081840152601f19601f82011690508083019250505050505050815260200185858080601f016020809104026020016040519081016040528093929190818152602001838380828437600081840152601f19601f820116905080830192505050505050508152602001600067ffffffffffffffff8111156107df576107de610fdd565b5b60405190808252806020026020018201604052801561080d5781602001602082028036833780820191505090505b508152509050600181908060018154018082558091505060019003906000526020600020906005020160009091909190915060008201518160000155602082015181600101908161085e91906111b8565b50604082015181600201908161087491906111b8565b50606082015181600301908161088a91906111b8565b5060808201518160040190805190602001906108a79291906108b4565b5050505050505050505050565b82805482825590600052602060002090810192821561092d579160200282015b8281111561092c5782518260006101000a81548173ffffffffffffffffffffffffffffffffffffffff021916908373ffffffffffffffffffffffffffffffffffffffff160217905550916020019190600101906108d4565b5b50905061093a919061093e565b5090565b5b8082111561095757600081600090555060010161093f565b5090565b600080fd5b600080fd5b6000819050919050565b61097881610965565b811461098357600080fd5b50565b6000813590506109958161096f565b92915050565b6000602082840312156109b1576109b061095b565b5b60006109bf84828501610986565b91505092915050565b6109d181610965565b82525050565b600081519050919050565b600082825260208201905092915050565b60005b83811015610a115780820151818401526020810190506109f6565b60008484015250505050565b6000601f19601f8301169050919050565b6000610a39826109d7565b610a4381856109e2565b9350610a538185602086016109f3565b610a5c81610a1d565b840191505092915050565b6000608082019050610a7c60008301876109c8565b8181036020830152610a8e8186610a2e565b90508181036040830152610aa28185610a2e565b90508181036060830152610ab68184610a2e565b905095945050505050565b600081519050919050565b600082825260208201905092915050565b6000819050602082019050919050565b610af681610965565b82525050565b600082825260208201905092915050565b6000610b18826109d7565b610b228185610afc565b9350610b328185602086016109f3565b610b3b81610a1d565b840191505092915050565b600081519050919050565b600082825260208201905092915050565b6000819050602082019050919050565b600073ffffffffffffffffffffffffffffffffffffffff82169050919050565b6000610b9d82610b72565b9050919050565b610bad81610b92565b82525050565b6000610bbf8383610ba4565b60208301905092915050565b6000602082019050919050565b6000610be382610b46565b610bed8185610b51565b9350610bf883610b62565b8060005b83811015610c29578151610c108882610bb3565b9750610c1b83610bcb565b925050600181019050610bfc565b5085935050505092915050565b600060a083016000830151610c4e6000860182610aed565b5060208301518482036020860152610c668282610b0d565b91505060408301518482036040860152610c808282610b0d565b91505060608301518482036060860152610c9a8282610b0d565b91505060808301518482036080860152610cb48282610bd8565b9150508091505092915050565b6000610ccd8383610c36565b905092915050565b6000602082019050919050565b6000610ced82610ac1565b610cf78185610acc565b935083602082028501610d0985610add565b8060005b85811015610d455784840389528151610d268582610cc1565b9450610d3183610cd5565b925060208a01995050600181019050610d0d565b50829750879550505050505092915050565b60006020820190508181036000830152610d718184610ce2565b905092915050565b610d8281610b92565b82525050565b6000602082019050610d9d6000830184610d79565b92915050565b600080fd5b600080fd5b600080fd5b60008083601f840112610dc857610dc7610da3565b5b8235905067ffffffffffffffff811115610de557610de4610da8565b5b602083019150836001820283011115610e0157610e00610dad565b5b9250929050565b60008060008060008060608789031215610e2557610e2461095b565b5b600087013567ffffffffffffffff811115610e4357610e42610960565b5b610e4f89828a01610db2565b9650965050602087013567ffffffffffffffff811115610e7257610e71610960565b5b610e7e89828a01610db2565b9450945050604087013567ffffffffffffffff811115610ea157610ea0610960565b5b610ead89828a01610db2565b92509250509295509295509295565b7f4e487b7100000000000000000000000000000000000000000000000000000000600052603260045260246000fd5b7f4e487b7100000000000000000000000000000000000000000000000000000000600052602260045260246000fd5b60006002820490506001821680610f3257607f821691505b602082108103610f4557610f44610eeb565b5b50919050565b7f596f7520617265206e6f7420746865206f776e6572206f662074686520636f6e60008201527f7472616374000000000000000000000000000000000000000000000000000000602082015250565b6000610fa76025836109e2565b9150610fb282610f4b565b604082019050919050565b60006020820190508181036000830152610fd681610f9a565b9050919050565b7f4e487b7100000000000000000000000000000000000000000000000000000000600052604160045260246000fd5b60008190508160005260206000209050919050565b60006020601f8301049050919050565b600082821b905092915050565b60006008830261106e7fffffffffffffffffffffffffffffffffffffffffffffffffffffffffffffffff82611031565b6110788683611031565b95508019841693508086168417925050509392505050565b6000819050919050565b60006110b56110b06110ab84610965565b611090565b610965565b9050919050565b6000819050919050565b6110cf8361109a565b6110e36110db826110bc565b84845461103e565b825550505050565b600090565b6110f86110eb565b6111038184846110c6565b505050565b5b818110156111275761111c6000826110f0565b600181019050611109565b5050565b601f82111561116c5761113d8161100c565b61114684611021565b81016020851015611155578190505b61116961116185611021565b830182611108565b50505b505050565b600082821c905092915050565b600061118f60001984600802611171565b1980831691505092915050565b60006111a8838361117e565b9150826002028217905092915050565b6111c1826109d7565b67ffffffffffffffff8111156111da576111d9610fdd565b5b6111e48254610f1a565b6111ef82828561112b565b600060209050601f8311600181146112225760008415611210578287015190505b61121a858261119c565b865550611282565b601f1984166112308661100c565b60005b8281101561125857848901518255600182019150602085019450602081019050611233565b868310156112755784890151611271601f89168261117e565b8355505b6001600288020188555050505b50505050505056fea264697066735822122015dd10a0d5a3ebe3fc649bf6e1ecc733d45919c9a73fc0af4cbb1dbb3adf03e264736f6c63430008110033",
  "linkReferences": {},
  "deployedLinkReferences": {}
}